{
    "_format": "hh-sol-artifact-1",
    "contractName": "ExpanseWarShips",
    "sourceName": "contracts/ExpanseWarShips.sol",
    "abi": [
        {
            "inputs": [
                {
                    "internalType": "string[]",
                    "name": "shipNames",
                    "type": "string[]"
                },
                {
                    "internalType": "string[]",
                    "name": "shipImageURIs",
                    "type": "string[]"
                },
                {
                    "internalType": "uint256[]",
                    "name": "shipHp",
                    "type": "uint256[]"
                },
                {
                    "internalType": "uint256[]",
                    "name": "shipAttackDmg",
                    "type": "uint256[]"
                },
                {
                    "internalType": "string",
                    "name": "bossName",
                    "type": "string"
                },
                {
                    "internalType": "string",
                    "name": "bossImageURI",
                    "type": "string"
                },
                {
                    "internalType": "uint256",
                    "name": "bossHp",
                    "type": "uint256"
                },
                {
                    "internalType": "uint256",
                    "name": "bossAttackDmg",
                    "type": "uint256"
                }
            ],
            "stateMutability": "nonpayable",
            "type": "constructor"
        },
        {
            "anonymous": false,
            "inputs": [
                {
                    "indexed": true,
                    "internalType": "address",
                    "name": "owner",
                    "type": "address"
                },
                {
                    "indexed": true,
                    "internalType": "address",
                    "name": "approved",
                    "type": "address"
                },
                {
                    "indexed": true,
                    "internalType": "uint256",
                    "name": "tokenId",
                    "type": "uint256"
                }
            ],
            "name": "Approval",
            "type": "event"
        },
        {
            "anonymous": false,
            "inputs": [
                {
                    "indexed": true,
                    "internalType": "address",
                    "name": "owner",
                    "type": "address"
                },
                {
                    "indexed": true,
                    "internalType": "address",
                    "name": "operator",
                    "type": "address"
                },
                {
                    "indexed": false,
                    "internalType": "bool",
                    "name": "approved",
                    "type": "bool"
                }
            ],
            "name": "ApprovalForAll",
            "type": "event"
        },
        {
            "anonymous": false,
            "inputs": [
                {
                    "indexed": false,
                    "internalType": "address",
                    "name": "sender",
                    "type": "address"
                },
                {
                    "indexed": false,
                    "internalType": "uint256",
                    "name": "newBossHp",
                    "type": "uint256"
                },
                {
                    "indexed": false,
                    "internalType": "uint256",
                    "name": "newShipHp",
                    "type": "uint256"
                }
            ],
            "name": "AttackComplete",
            "type": "event"
        },
        {
            "anonymous": false,
            "inputs": [
                {
                    "indexed": false,
                    "internalType": "address",
                    "name": "sender",
                    "type": "address"
                },
                {
                    "indexed": false,
                    "internalType": "uint256",
                    "name": "tokenId",
                    "type": "uint256"
                },
                {
                    "indexed": false,
                    "internalType": "uint256",
                    "name": "shipIndex",
                    "type": "uint256"
                }
            ],
            "name": "ShipNFTBurned",
            "type": "event"
        },
        {
            "anonymous": false,
            "inputs": [
                {
                    "indexed": false,
                    "internalType": "address",
                    "name": "sender",
                    "type": "address"
                },
                {
                    "indexed": false,
                    "internalType": "uint256",
                    "name": "tokenId",
                    "type": "uint256"
                },
                {
                    "indexed": false,
                    "internalType": "uint256",
                    "name": "shipIndex",
                    "type": "uint256"
                }
            ],
            "name": "ShipNFTMinted",
            "type": "event"
        },
        {
            "anonymous": false,
            "inputs": [
                {
                    "indexed": true,
                    "internalType": "address",
                    "name": "from",
                    "type": "address"
                },
                {
                    "indexed": true,
                    "internalType": "address",
                    "name": "to",
                    "type": "address"
                },
                {
                    "indexed": true,
                    "internalType": "uint256",
                    "name": "tokenId",
                    "type": "uint256"
                }
            ],
            "name": "Transfer",
            "type": "event"
        },
        {
            "inputs": [],
            "name": "alienBoss",
            "outputs": [
                {
                    "internalType": "string",
                    "name": "name",
                    "type": "string"
                },
                {
                    "internalType": "string",
                    "name": "imageURI",
                    "type": "string"
                },
                {
                    "internalType": "uint256",
                    "name": "hp",
                    "type": "uint256"
                },
                {
                    "internalType": "uint256",
                    "name": "maxHp",
                    "type": "uint256"
                },
                {
                    "internalType": "uint256",
                    "name": "attackDamage",
                    "type": "uint256"
                }
            ],
            "stateMutability": "view",
            "type": "function"
        },
        {
            "inputs": [
                {
                    "internalType": "address",
                    "name": "to",
                    "type": "address"
                },
                {
                    "internalType": "uint256",
                    "name": "tokenId",
                    "type": "uint256"
                }
            ],
            "name": "approve",
            "outputs": [],
            "stateMutability": "nonpayable",
            "type": "function"
        },
        {
            "inputs": [],
            "name": "attackBoss",
            "outputs": [],
            "stateMutability": "nonpayable",
            "type": "function"
        },
        {
            "inputs": [
                {
                    "internalType": "address",
                    "name": "owner",
                    "type": "address"
                }
            ],
            "name": "balanceOf",
            "outputs": [
                {
                    "internalType": "uint256",
                    "name": "",
                    "type": "uint256"
                }
            ],
            "stateMutability": "view",
            "type": "function"
        },
        {
            "inputs": [],
            "name": "checkIfUserHasNFT",
            "outputs": [
                {
                    "components": [
                        {
                            "internalType": "uint256",
                            "name": "shipIndex",
                            "type": "uint256"
                        },
                        {
                            "internalType": "string",
                            "name": "name",
                            "type": "string"
                        },
                        {
                            "internalType": "string",
                            "name": "imageURI",
                            "type": "string"
                        },
                        {
                            "internalType": "uint256",
                            "name": "hp",
                            "type": "uint256"
                        },
                        {
                            "internalType": "uint256",
                            "name": "maxHp",
                            "type": "uint256"
                        },
                        {
                            "internalType": "uint256",
                            "name": "attackDamage",
                            "type": "uint256"
                        }
                    ],
                    "internalType": "struct ExpanseWarShips.ShipAttributes",
                    "name": "",
                    "type": "tuple"
                }
            ],
            "stateMutability": "view",
            "type": "function"
        },
        {
            "inputs": [],
            "name": "getAllDefaultShips",
            "outputs": [
                {
                    "components": [
                        {
                            "internalType": "uint256",
                            "name": "shipIndex",
                            "type": "uint256"
                        },
                        {
                            "internalType": "string",
                            "name": "name",
                            "type": "string"
                        },
                        {
                            "internalType": "string",
                            "name": "imageURI",
                            "type": "string"
                        },
                        {
                            "internalType": "uint256",
                            "name": "hp",
                            "type": "uint256"
                        },
                        {
                            "internalType": "uint256",
                            "name": "maxHp",
                            "type": "uint256"
                        },
                        {
                            "internalType": "uint256",
                            "name": "attackDamage",
                            "type": "uint256"
                        }
                    ],
                    "internalType": "struct ExpanseWarShips.ShipAttributes[]",
                    "name": "",
                    "type": "tuple[]"
                }
            ],
            "stateMutability": "view",
            "type": "function"
        },
        {
            "inputs": [
                {
                    "internalType": "uint256",
                    "name": "tokenId",
                    "type": "uint256"
                }
            ],
            "name": "getApproved",
            "outputs": [
                {
                    "internalType": "address",
                    "name": "",
                    "type": "address"
                }
            ],
            "stateMutability": "view",
            "type": "function"
        },
        {
            "inputs": [],
            "name": "getBossShip",
            "outputs": [
                {
                    "components": [
                        {
                            "internalType": "string",
                            "name": "name",
                            "type": "string"
                        },
                        {
                            "internalType": "string",
                            "name": "imageURI",
                            "type": "string"
                        },
                        {
                            "internalType": "uint256",
                            "name": "hp",
                            "type": "uint256"
                        },
                        {
                            "internalType": "uint256",
                            "name": "maxHp",
                            "type": "uint256"
                        },
                        {
                            "internalType": "uint256",
                            "name": "attackDamage",
                            "type": "uint256"
                        }
                    ],
                    "internalType": "struct ExpanseWarShips.AlienBoss",
                    "name": "",
                    "type": "tuple"
                }
            ],
            "stateMutability": "view",
            "type": "function"
        },
        {
            "inputs": [
                {
                    "internalType": "address",
                    "name": "owner",
                    "type": "address"
                },
                {
                    "internalType": "address",
                    "name": "operator",
                    "type": "address"
                }
            ],
            "name": "isApprovedForAll",
            "outputs": [
                {
                    "internalType": "bool",
                    "name": "",
                    "type": "bool"
                }
            ],
            "stateMutability": "view",
            "type": "function"
        },
        {
            "inputs": [
                {
                    "internalType": "uint256",
                    "name": "_shipIndex",
                    "type": "uint256"
                }
            ],
            "name": "mintShipNFT",
            "outputs": [],
            "stateMutability": "nonpayable",
            "type": "function"
        },
        {
            "inputs": [],
            "name": "name",
            "outputs": [
                {
                    "internalType": "string",
                    "name": "",
                    "type": "string"
                }
            ],
            "stateMutability": "view",
            "type": "function"
        },
        {
            "inputs": [
                {
                    "internalType": "uint256",
                    "name": "",
                    "type": "uint256"
                }
            ],
            "name": "nftHolderAttributes",
            "outputs": [
                {
                    "internalType": "uint256",
                    "name": "shipIndex",
                    "type": "uint256"
                },
                {
                    "internalType": "string",
                    "name": "name",
                    "type": "string"
                },
                {
                    "internalType": "string",
                    "name": "imageURI",
                    "type": "string"
                },
                {
                    "internalType": "uint256",
                    "name": "hp",
                    "type": "uint256"
                },
                {
                    "internalType": "uint256",
                    "name": "maxHp",
                    "type": "uint256"
                },
                {
                    "internalType": "uint256",
                    "name": "attackDamage",
                    "type": "uint256"
                }
            ],
            "stateMutability": "view",
            "type": "function"
        },
        {
            "inputs": [
                {
                    "internalType": "address",
                    "name": "",
                    "type": "address"
                }
            ],
            "name": "nftHolders",
            "outputs": [
                {
                    "internalType": "uint256",
                    "name": "",
                    "type": "uint256"
                }
            ],
            "stateMutability": "view",
            "type": "function"
        },
        {
            "inputs": [
                {
                    "internalType": "uint256",
                    "name": "tokenId",
                    "type": "uint256"
                }
            ],
            "name": "ownerOf",
            "outputs": [
                {
                    "internalType": "address",
                    "name": "",
                    "type": "address"
                }
            ],
            "stateMutability": "view",
            "type": "function"
        },
        {
            "inputs": [
                {
                    "internalType": "address",
                    "name": "from",
                    "type": "address"
                },
                {
                    "internalType": "address",
                    "name": "to",
                    "type": "address"
                },
                {
                    "internalType": "uint256",
                    "name": "tokenId",
                    "type": "uint256"
                }
            ],
            "name": "safeTransferFrom",
            "outputs": [],
            "stateMutability": "nonpayable",
            "type": "function"
        },
        {
            "inputs": [
                {
                    "internalType": "address",
                    "name": "from",
                    "type": "address"
                },
                {
                    "internalType": "address",
                    "name": "to",
                    "type": "address"
                },
                {
                    "internalType": "uint256",
                    "name": "tokenId",
                    "type": "uint256"
                },
                {
                    "internalType": "bytes",
                    "name": "_data",
                    "type": "bytes"
                }
            ],
            "name": "safeTransferFrom",
            "outputs": [],
            "stateMutability": "nonpayable",
            "type": "function"
        },
        {
            "inputs": [
                {
                    "internalType": "address",
                    "name": "operator",
                    "type": "address"
                },
                {
                    "internalType": "bool",
                    "name": "approved",
                    "type": "bool"
                }
            ],
            "name": "setApprovalForAll",
            "outputs": [],
            "stateMutability": "nonpayable",
            "type": "function"
        },
        {
            "inputs": [
                {
                    "internalType": "bytes4",
                    "name": "interfaceId",
                    "type": "bytes4"
                }
            ],
            "name": "supportsInterface",
            "outputs": [
                {
                    "internalType": "bool",
                    "name": "",
                    "type": "bool"
                }
            ],
            "stateMutability": "view",
            "type": "function"
        },
        {
            "inputs": [],
            "name": "symbol",
            "outputs": [
                {
                    "internalType": "string",
                    "name": "",
                    "type": "string"
                }
            ],
            "stateMutability": "view",
            "type": "function"
        },
        {
            "inputs": [
                {
                    "internalType": "uint256",
                    "name": "_tokenId",
                    "type": "uint256"
                }
            ],
            "name": "tokenURI",
            "outputs": [
                {
                    "internalType": "string",
                    "name": "",
                    "type": "string"
                }
            ],
            "stateMutability": "view",
            "type": "function"
        },
        {
            "inputs": [
                {
                    "internalType": "address",
                    "name": "from",
                    "type": "address"
                },
                {
                    "internalType": "address",
                    "name": "to",
                    "type": "address"
                },
                {
                    "internalType": "uint256",
                    "name": "tokenId",
                    "type": "uint256"
                }
            ],
            "name": "transferFrom",
            "outputs": [],
            "stateMutability": "nonpayable",
            "type": "function"
        }
    ],
    "bytecode": "0x60806040523480156200001157600080fd5b506040516200610e3803806200610e833981810160405281019062000037919062000b73565b6040518060400160405280600881526020017f57617273686970730000000000000000000000000000000000000000000000008152506040518060400160405280600381526020017f57415200000000000000000000000000000000000000000000000000000000008152508160009080519060200190620000bb929190620008db565b508060019080519060200190620000d4929190620008db565b505050620001226040518060400160405280601a81526020017f54686973206973206d79206669727374204e46542067616d65210000000000008152506200074d60201b620022831760201c565b6040518060a00160405280858152602001848152602001838152602001838152602001828152506008600082015181600001908051906020019062000169929190620008db565b50602082015181600101908051906020019062000188929190620008db565b506040820151816002015560608201518160030155608082015181600401559050506200030b6040518060600160405280602e8152602001620060ab602e913960086000018054620001da9062000f1a565b80601f0160208091040260200160405190810160405280929190818152602001828054620002089062000f1a565b8015620002595780601f106200022d5761010080835404028352916020019162000259565b820191906000526020600020905b8154815290600101906020018083116200023b57829003601f168201915b505050505060086002015460086001018054620002769062000f1a565b80601f0160208091040260200160405190810160405280929190818152602001828054620002a49062000f1a565b8015620002f55780601f10620002c957610100808354040283529160200191620002f5565b820191906000526020600020905b815481529060010190602001808311620002d757829003601f168201915b5050505050620007f060201b6200231c1760201c565b60005b8851811015620007275760076040518060c001604052808381526020018b848151811062000365577f4e487b7100000000000000000000000000000000000000000000000000000000600052603260045260246000fd5b602002602001015181526020018a8481518110620003ac577f4e487b7100000000000000000000000000000000000000000000000000000000600052603260045260246000fd5b60200260200101518152602001898481518110620003f3577f4e487b7100000000000000000000000000000000000000000000000000000000600052603260045260246000fd5b602002602001015181526020018984815181106200043a577f4e487b7100000000000000000000000000000000000000000000000000000000600052603260045260246000fd5b6020026020010151815260200188848151811062000481577f4e487b7100000000000000000000000000000000000000000000000000000000600052603260045260246000fd5b60200260200101518152509080600181540180825580915050600190039060005260206000209060060201600090919091909150600082015181600001556020820151816001019080519060200190620004dd929190620008db565b506040820151816002019080519060200190620004fc929190620008db565b50606082015181600301556080820151816004015560a0820151816005015550506000600782815481106200055a577f4e487b7100000000000000000000000000000000000000000000000000000000600052603260045260246000fd5b90600052602060002090600602016040518060c0016040529081600082015481526020016001820180546200058f9062000f1a565b80601f0160208091040260200160405190810160405280929190818152602001828054620005bd9062000f1a565b80156200060e5780601f10620005e2576101008083540402835291602001916200060e565b820191906000526020600020905b815481529060010190602001808311620005f057829003601f168201915b50505050508152602001600282018054620006299062000f1a565b80601f0160208091040260200160405190810160405280929190818152602001828054620006579062000f1a565b8015620006a85780601f106200067c57610100808354040283529160200191620006a8565b820191906000526020600020905b8154815290600101906020018083116200068a57829003601f168201915b50505050508152602001600382015481526020016004820154815260200160058201548152505090506200070f604051806060016040528060358152602001620060d960359139826020015183606001518460400151620007f060201b6200231c1760201c565b506001816200071f919062000e7d565b90506200030e565b506200073f60066200089c60201b620023be1760201c565b50505050505050506200103e565b620007ed8160405160240162000764919062000d1e565b6040516020818303038152906040527f41304fac000000000000000000000000000000000000000000000000000000007bffffffffffffffffffffffffffffffffffffffffffffffffffffffff19166020820180517bffffffffffffffffffffffffffffffffffffffffffffffffffffffff8381831617835250505050620008b260201b60201c565b50565b62000896848484846040516024016200080d949392919062000d42565b6040516020818303038152906040527f8d142cdd000000000000000000000000000000000000000000000000000000007bffffffffffffffffffffffffffffffffffffffffffffffffffffffff19166020820180517bffffffffffffffffffffffffffffffffffffffffffffffffffffffff8381831617835250505050620008b260201b60201c565b50505050565b6001816000016000828254019250508190555050565b60008151905060006a636f6e736f6c652e6c6f679050602083016000808483855afa5050505050565b828054620008e99062000f1a565b90600052602060002090601f0160209004810192826200090d576000855562000959565b82601f106200092857805160ff191683800117855562000959565b8280016001018555821562000959579182015b82811115620009585782518255916020019190600101906200093b565b5b5090506200096891906200096c565b5090565b5b80821115620009875760008160009055506001016200096d565b5090565b6000620009a26200099c8462000dcd565b62000da4565b90508083825260208201905082856020860282011115620009c257600080fd5b60005b8581101562000a1157815167ffffffffffffffff811115620009e657600080fd5b808601620009f5898262000b2f565b85526020850194506020840193505050600181019050620009c5565b5050509392505050565b600062000a3262000a2c8462000dfc565b62000da4565b9050808382526020820190508285602086028201111562000a5257600080fd5b60005b8581101562000a86578162000a6b888262000b5c565b84526020840193506020830192505060018101905062000a55565b5050509392505050565b600062000aa762000aa18462000e2b565b62000da4565b90508281526020810184848401111562000ac057600080fd5b62000acd84828562000ee4565b509392505050565b600082601f83011262000ae757600080fd5b815162000af98482602086016200098b565b91505092915050565b600082601f83011262000b1457600080fd5b815162000b2684826020860162000a1b565b91505092915050565b600082601f83011262000b4157600080fd5b815162000b5384826020860162000a90565b91505092915050565b60008151905062000b6d8162001024565b92915050565b600080600080600080600080610100898b03121562000b9157600080fd5b600089015167ffffffffffffffff81111562000bac57600080fd5b62000bba8b828c0162000ad5565b985050602089015167ffffffffffffffff81111562000bd857600080fd5b62000be68b828c0162000ad5565b975050604089015167ffffffffffffffff81111562000c0457600080fd5b62000c128b828c0162000b02565b965050606089015167ffffffffffffffff81111562000c3057600080fd5b62000c3e8b828c0162000b02565b955050608089015167ffffffffffffffff81111562000c5c57600080fd5b62000c6a8b828c0162000b2f565b94505060a089015167ffffffffffffffff81111562000c8857600080fd5b62000c968b828c0162000b2f565b93505060c062000ca98b828c0162000b5c565b92505060e062000cbc8b828c0162000b5c565b9150509295985092959890939650565b600062000cd98262000e61565b62000ce5818562000e6c565b935062000cf781856020860162000ee4565b62000d028162001013565b840191505092915050565b62000d188162000eda565b82525050565b6000602082019050818103600083015262000d3a818462000ccc565b905092915050565b6000608082019050818103600083015262000d5e818762000ccc565b9050818103602083015262000d74818662000ccc565b905062000d85604083018562000d0d565b818103606083015262000d99818462000ccc565b905095945050505050565b600062000db062000dc3565b905062000dbe828262000f50565b919050565b6000604051905090565b600067ffffffffffffffff82111562000deb5762000dea62000fe4565b5b602082029050602081019050919050565b600067ffffffffffffffff82111562000e1a5762000e1962000fe4565b5b602082029050602081019050919050565b600067ffffffffffffffff82111562000e495762000e4862000fe4565b5b62000e548262001013565b9050602081019050919050565b600081519050919050565b600082825260208201905092915050565b600062000e8a8262000eda565b915062000e978362000eda565b9250827fffffffffffffffffffffffffffffffffffffffffffffffffffffffffffffffff0382111562000ecf5762000ece62000f86565b5b828201905092915050565b6000819050919050565b60005b8381101562000f0457808201518184015260208101905062000ee7565b8381111562000f14576000848401525b50505050565b6000600282049050600182168062000f3357607f821691505b6020821081141562000f4a5762000f4962000fb5565b5b50919050565b62000f5b8262001013565b810181811067ffffffffffffffff8211171562000f7d5762000f7c62000fe4565b5b80604052505050565b7f4e487b7100000000000000000000000000000000000000000000000000000000600052601160045260246000fd5b7f4e487b7100000000000000000000000000000000000000000000000000000000600052602260045260246000fd5b7f4e487b7100000000000000000000000000000000000000000000000000000000600052604160045260246000fd5b6000601f19601f8301169050919050565b6200102f8162000eda565b81146200103b57600080fd5b50565b61505d806200104e6000396000f3fe608060405234801561001057600080fd5b50600436106101375760003560e01c80637df124a1116100b8578063a22cb4651161007c578063a22cb4651461036b578063b88d4fde14610387578063c87b56dd146103a3578063c8cf27f4146103d3578063d4f24c5b146103f1578063e985e9c5146103fb57610137565b80637df124a1146102a857806395d89b41146102d857806398da4c95146102f65780639e199f781461032b578063a0d32c111461034957610137565b80632b648b51116100ff5780632b648b51146101f257806342842e0e1461020e5780635e229de21461022a5780636352211e1461024857806370a082311461027857610137565b806301ffc9a71461013c57806306fdde031461016c578063081812fc1461018a578063095ea7b3146101ba57806323b872dd146101d6575b600080fd5b61015660048036038101906101519190613792565b61042b565b6040516101639190613ff7565b60405180910390f35b61017461050d565b6040516101819190614012565b60405180910390f35b6101a4600480360381019061019f91906137e4565b61059f565b6040516101b19190613f37565b60405180910390f35b6101d460048036038101906101cf9190613756565b610624565b005b6101f060048036038101906101eb9190613650565b61073c565b005b61020c600480360381019061020791906137e4565b61079c565b005b61022860048036038101906102239190613650565b610b90565b005b610232610bb0565b60405161023f91906143ac565b60405180910390f35b610262600480360381019061025d91906137e4565b610d0c565b60405161026f9190613f37565b60405180910390f35b610292600480360381019061028d91906135eb565b610dbe565b60405161029f91906143f0565b60405180910390f35b6102c260048036038101906102bd91906135eb565b610e76565b6040516102cf91906143f0565b60405180910390f35b6102e0610e8e565b6040516102ed9190614012565b60405180910390f35b610310600480360381019061030b91906137e4565b610f20565b6040516103229695949392919061440b565b60405180910390f35b61033361106c565b6040516103409190613fd5565b60405180910390f35b610351611217565b60405161036295949392919061412d565b60405180910390f35b6103856004803603810190610380919061371a565b61134b565b005b6103a1600480360381019061039c919061369f565b611361565b005b6103bd60048036038101906103b891906137e4565b6113c3565b6040516103ca9190614012565b60405180910390f35b6103db6115de565b6040516103e891906143ce565b60405180910390f35b6103f96117b6565b005b61041560048036038101906104109190613614565b6121ef565b6040516104229190613ff7565b60405180910390f35b60007f80ac58cd000000000000000000000000000000000000000000000000000000007bffffffffffffffffffffffffffffffffffffffffffffffffffffffff1916827bffffffffffffffffffffffffffffffffffffffffffffffffffffffff191614806104f657507f5b5e139f000000000000000000000000000000000000000000000000000000007bffffffffffffffffffffffffffffffffffffffffffffffffffffffff1916827bffffffffffffffffffffffffffffffffffffffffffffffffffffffff1916145b806105065750610505826123d4565b5b9050919050565b60606000805461051c90614728565b80601f016020809104026020016040519081016040528092919081815260200182805461054890614728565b80156105955780601f1061056a57610100808354040283529160200191610595565b820191906000526020600020905b81548152906001019060200180831161057857829003601f168201915b5050505050905090565b60006105aa8261243e565b6105e9576040517f08c379a00000000000000000000000000000000000000000000000000000000081526004016105e09061432c565b60405180910390fd5b6004600083815260200190815260200160002060009054906101000a900473ffffffffffffffffffffffffffffffffffffffff169050919050565b600061062f82610d0c565b90508073ffffffffffffffffffffffffffffffffffffffff168373ffffffffffffffffffffffffffffffffffffffff1614156106a0576040517f08c379a00000000000000000000000000000000000000000000000000000000081526004016106979061434c565b60405180910390fd5b8073ffffffffffffffffffffffffffffffffffffffff166106bf6124aa565b73ffffffffffffffffffffffffffffffffffffffff1614806106ee57506106ed816106e86124aa565b6121ef565b5b61072d576040517f08c379a0000000000000000000000000000000000000000000000000000000008152600401610724906142ac565b60405180910390fd5b61073783836124b2565b505050565b61074d6107476124aa565b8261256b565b61078c576040517f08c379a00000000000000000000000000000000000000000000000000000000081526004016107839061436c565b60405180910390fd5b610797838383612649565b505050565b60006107a860066128b0565b90506107b433826128be565b6040518060c00160405280838152602001600784815481106107ff577f4e487b7100000000000000000000000000000000000000000000000000000000600052603260045260246000fd5b9060005260206000209060060201600101805461081b90614728565b80601f016020809104026020016040519081016040528092919081815260200182805461084790614728565b80156108945780601f1061086957610100808354040283529160200191610894565b820191906000526020600020905b81548152906001019060200180831161087757829003601f168201915b50505050508152602001600784815481106108d8577f4e487b7100000000000000000000000000000000000000000000000000000000600052603260045260246000fd5b906000526020600020906006020160020180546108f490614728565b80601f016020809104026020016040519081016040528092919081815260200182805461092090614728565b801561096d5780601f106109425761010080835404028352916020019161096d565b820191906000526020600020905b81548152906001019060200180831161095057829003601f168201915b50505050508152602001600784815481106109b1577f4e487b7100000000000000000000000000000000000000000000000000000000600052603260045260246000fd5b906000526020600020906006020160030154815260200160078481548110610a02577f4e487b7100000000000000000000000000000000000000000000000000000000600052603260045260246000fd5b906000526020600020906006020160040154815260200160078481548110610a53577f4e487b7100000000000000000000000000000000000000000000000000000000600052603260045260246000fd5b906000526020600020906006020160050154815250600d6000838152602001908152602001600020600082015181600001556020820151816001019080519060200190610aa1929190613412565b506040820151816002019080519060200190610abe929190613412565b50606082015181600301556080820151816004015560a08201518160050155905050610b03604051806060016040528060358152602001614f8a6035913982846128dc565b80600e60003373ffffffffffffffffffffffffffffffffffffffff1673ffffffffffffffffffffffffffffffffffffffff16815260200190815260200160002081905550610b5160066123be565b7ff6bf2ce61fc7fa5dc4d893bb58c3576388d46b0e8b090a0d482ebdb5f4d108e8338284604051610b8493929190613f9e565b60405180910390a15050565b610bab83838360405180602001604052806000815250611361565b505050565b610bb8613498565b60086040518060a0016040529081600082018054610bd590614728565b80601f0160208091040260200160405190810160405280929190818152602001828054610c0190614728565b8015610c4e5780601f10610c2357610100808354040283529160200191610c4e565b820191906000526020600020905b815481529060010190602001808311610c3157829003601f168201915b50505050508152602001600182018054610c6790614728565b80601f0160208091040260200160405190810160405280929190818152602001828054610c9390614728565b8015610ce05780601f10610cb557610100808354040283529160200191610ce0565b820191906000526020600020905b815481529060010190602001808311610cc357829003601f168201915b505050505081526020016002820154815260200160038201548152602001600482015481525050905090565b6000806002600084815260200190815260200160002060009054906101000a900473ffffffffffffffffffffffffffffffffffffffff169050600073ffffffffffffffffffffffffffffffffffffffff168173ffffffffffffffffffffffffffffffffffffffff161415610db5576040517f08c379a0000000000000000000000000000000000000000000000000000000008152600401610dac906142ec565b60405180910390fd5b80915050919050565b60008073ffffffffffffffffffffffffffffffffffffffff168273ffffffffffffffffffffffffffffffffffffffff161415610e2f576040517f08c379a0000000000000000000000000000000000000000000000000000000008152600401610e26906142cc565b60405180910390fd5b600360008373ffffffffffffffffffffffffffffffffffffffff1673ffffffffffffffffffffffffffffffffffffffff168152602001908152602001600020549050919050565b600e6020528060005260406000206000915090505481565b606060018054610e9d90614728565b80601f0160208091040260200160405190810160405280929190818152602001828054610ec990614728565b8015610f165780601f10610eeb57610100808354040283529160200191610f16565b820191906000526020600020905b815481529060010190602001808311610ef957829003601f168201915b5050505050905090565b600d602052806000526040600020600091509050806000015490806001018054610f4990614728565b80601f0160208091040260200160405190810160405280929190818152602001828054610f7590614728565b8015610fc25780601f10610f9757610100808354040283529160200191610fc2565b820191906000526020600020905b815481529060010190602001808311610fa557829003601f168201915b505050505090806002018054610fd790614728565b80601f016020809104026020016040519081016040528092919081815260200182805461100390614728565b80156110505780601f1061102557610100808354040283529160200191611050565b820191906000526020600020905b81548152906001019060200180831161103357829003601f168201915b5050505050908060030154908060040154908060050154905086565b60606007805480602002602001604051908101604052809291908181526020016000905b8282101561120e57838290600052602060002090600602016040518060c0016040529081600082015481526020016001820180546110cd90614728565b80601f01602080910402602001604051908101604052809291908181526020018280546110f990614728565b80156111465780601f1061111b57610100808354040283529160200191611146565b820191906000526020600020905b81548152906001019060200180831161112957829003601f168201915b5050505050815260200160028201805461115f90614728565b80601f016020809104026020016040519081016040528092919081815260200182805461118b90614728565b80156111d85780601f106111ad576101008083540402835291602001916111d8565b820191906000526020600020905b8154815290600101906020018083116111bb57829003601f168201915b50505050508152602001600382015481526020016004820154815260200160058201548152505081526020019060010190611090565b50505050905090565b600880600001805461122890614728565b80601f016020809104026020016040519081016040528092919081815260200182805461125490614728565b80156112a15780601f10611276576101008083540402835291602001916112a1565b820191906000526020600020905b81548152906001019060200180831161128457829003601f168201915b5050505050908060010180546112b690614728565b80601f01602080910402602001604051908101604052809291908181526020018280546112e290614728565b801561132f5780601f106113045761010080835404028352916020019161132f565b820191906000526020600020905b81548152906001019060200180831161131257829003601f168201915b5050505050908060020154908060030154908060040154905085565b61135d6113566124aa565b838361297b565b5050565b61137261136c6124aa565b8361256b565b6113b1576040517f08c379a00000000000000000000000000000000000000000000000000000000081526004016113a89061436c565b60405180910390fd5b6113bd84848484612ae8565b50505050565b60606000600d60008481526020019081526020016000206040518060c0016040529081600082015481526020016001820180546113ff90614728565b80601f016020809104026020016040519081016040528092919081815260200182805461142b90614728565b80156114785780601f1061144d57610100808354040283529160200191611478565b820191906000526020600020905b81548152906001019060200180831161145b57829003601f168201915b5050505050815260200160028201805461149190614728565b80601f01602080910402602001604051908101604052809291908181526020018280546114bd90614728565b801561150a5780601f106114df5761010080835404028352916020019161150a565b820191906000526020600020905b8154815290600101906020018083116114ed57829003601f168201915b505050505081526020016003820154815260200160048201548152602001600582015481525050905060006115428260600151612b44565b905060006115538360800151612b44565b905060006115648460a00151612b44565b905060006115aa856020015161157989612b44565b876040015187878760405160200161159696959493929190613e70565b604051602081830303815290604052612cf1565b90506000816040516020016115bf9190613f15565b6040516020818303038152906040529050809650505050505050919050565b6115e66134c7565b6000600e60003373ffffffffffffffffffffffffffffffffffffffff1673ffffffffffffffffffffffffffffffffffffffff16815260200190815260200160002054905060008111156117a557600d60008281526020019081526020016000206040518060c00160405290816000820154815260200160018201805461166b90614728565b80601f016020809104026020016040519081016040528092919081815260200182805461169790614728565b80156116e45780601f106116b9576101008083540402835291602001916116e4565b820191906000526020600020905b8154815290600101906020018083116116c757829003601f168201915b505050505081526020016002820180546116fd90614728565b80601f016020809104026020016040519081016040528092919081815260200182805461172990614728565b80156117765780601f1061174b57610100808354040283529160200191611776565b820191906000526020600020905b81548152906001019060200180831161175957829003601f168201915b5050505050815260200160038201548152602001600482015481526020016005820154815250509150506117b3565b6117ad6134c7565b80925050505b90565b6000600e60003373ffffffffffffffffffffffffffffffffffffffff1673ffffffffffffffffffffffffffffffffffffffff1681526020019081526020016000205490506000600d6000838152602001908152602001600020905061196a6040518060400160405280601e81526020017f5b2b5d205468652025732069732061747461636b696e6720746865202573000081525082600101805461185990614728565b80601f016020809104026020016040519081016040528092919081815260200182805461188590614728565b80156118d25780601f106118a7576101008083540402835291602001916118d2565b820191906000526020600020905b8154815290600101906020018083116118b557829003601f168201915b5050505050600860000180546118e790614728565b80601f016020809104026020016040519081016040528092919081815260200182805461191390614728565b80156119605780601f1061193557610100808354040283529160200191611960565b820191906000526020600020905b81548152906001019060200180831161194357829003601f168201915b5050505050612eaf565b611a3f6040518060400160405280601881526020017f5b2b5d2025732048503a20257320616e642041443a20257300000000000000008152508260010180546119b290614728565b80601f01602080910402602001604051908101604052809291908181526020018280546119de90614728565b8015611a2b5780601f10611a0057610100808354040283529160200191611a2b565b820191906000526020600020905b815481529060010190602001808311611a0e57829003601f168201915b505050505083600301548460050154612f4e565b611b176040518060400160405280602081526020017f5b2b5d20546865202573206861732048503a20257320616e642041443a20257381525060086000018054611a8890614728565b80601f0160208091040260200160405190810160405280929190818152602001828054611ab490614728565b8015611b015780601f10611ad657610100808354040283529160200191611b01565b820191906000526020600020905b815481529060010190602001808311611ae457829003601f168201915b5050505050600860020154600860040154612f4e565b6000816003015411611b5e576040517f08c379a0000000000000000000000000000000000000000000000000000000008152600401611b55906141cc565b60405180910390fd5b600060086002015411611ba6576040517f08c379a0000000000000000000000000000000000000000000000000000000008152600401611b9d9061438c565b60405180910390fd5b80600501546008600201541015611d0357611cf3604051806060016040528060298152602001614fff6029913960086000018054611be390614728565b80601f0160208091040260200160405190810160405280929190818152602001828054611c0f90614728565b8015611c5c5780601f10611c3157610100808354040283529160200191611c5c565b820191906000526020600020905b815481529060010190602001808311611c3f57829003601f168201915b5050505050836001018054611c7090614728565b80601f0160208091040260200160405190810160405280929190818152602001828054611c9c90614728565b8015611ce95780601f10611cbe57610100808354040283529160200191611ce9565b820191906000526020600020905b815481529060010190602001808311611ccc57829003601f168201915b5050505050612eaf565b6000600860020181905550611d24565b806005015460086002016000828254611d1c919061463e565b925050819055505b60086004015481600301541015611e8057611e71604051806060016040528060298152602001614fff60299139826001018054611d6090614728565b80601f0160208091040260200160405190810160405280929190818152602001828054611d8c90614728565b8015611dd95780601f10611dae57610100808354040283529160200191611dd9565b820191906000526020600020905b815481529060010190602001808311611dbc57829003601f168201915b505050505060086000018054611dee90614728565b80601f0160208091040260200160405190810160405280929190818152602001828054611e1a90614728565b8015611e675780601f10611e3c57610100808354040283529160200191611e67565b820191906000526020600020905b815481529060010190602001808311611e4a57829003601f168201915b5050505050612eaf565b60008160030181905550611ea1565b600860040154816003016000828254611e99919061463e565b925050819055505b611ffa6040518060400160405280601a81526020017f5b2b5d205468652025732061747461636b656420746865202573000000000000815250826001018054611ee990614728565b80601f0160208091040260200160405190810160405280929190818152602001828054611f1590614728565b8015611f625780601f10611f3757610100808354040283529160200191611f62565b820191906000526020600020905b815481529060010190602001808311611f4557829003601f168201915b505050505060086000018054611f7790614728565b80601f0160208091040260200160405190810160405280929190818152602001828054611fa390614728565b8015611ff05780601f10611fc557610100808354040283529160200191611ff0565b820191906000526020600020905b815481529060010190602001808311611fd357829003601f168201915b5050505050612eaf565b6120cf6040518060400160405280601881526020017f5b2b5d2025732048503a20257320616e642041443a202573000000000000000081525082600101805461204290614728565b80601f016020809104026020016040519081016040528092919081815260200182805461206e90614728565b80156120bb5780601f10612090576101008083540402835291602001916120bb565b820191906000526020600020905b81548152906001019060200180831161209e57829003601f168201915b505050505083600301548460050154612f4e565b6121a76040518060400160405280601781526020017f5b2b5d20257327732048503a2025732c2041443a2025730000000000000000008152506008600001805461211890614728565b80601f016020809104026020016040519081016040528092919081815260200182805461214490614728565b80156121915780601f1061216657610100808354040283529160200191612191565b820191906000526020600020905b81548152906001019060200180831161217457829003601f168201915b5050505050600860020154600860040154612f4e565b7f32bd565ee3f2cb5ddd742bbecd6048d3e9abe90b3827a40c2b72d232e71e3c9d3360086002015483600301546040516121e393929190613f9e565b60405180910390a15050565b6000600560008473ffffffffffffffffffffffffffffffffffffffff1673ffffffffffffffffffffffffffffffffffffffff16815260200190815260200160002060008373ffffffffffffffffffffffffffffffffffffffff1673ffffffffffffffffffffffffffffffffffffffff16815260200190815260200160002060009054906101000a900460ff16905092915050565b612319816040516024016122979190614012565b6040516020818303038152906040527f41304fac000000000000000000000000000000000000000000000000000000007bffffffffffffffffffffffffffffffffffffffffffffffffffffffff19166020820180517bffffffffffffffffffffffffffffffffffffffffffffffffffffffff8381831617835250505050612ff0565b50565b6123b8848484846040516024016123369493929190614080565b6040516020818303038152906040527f8d142cdd000000000000000000000000000000000000000000000000000000007bffffffffffffffffffffffffffffffffffffffffffffffffffffffff19166020820180517bffffffffffffffffffffffffffffffffffffffffffffffffffffffff8381831617835250505050612ff0565b50505050565b6001816000016000828254019250508190555050565b60007f01ffc9a7000000000000000000000000000000000000000000000000000000007bffffffffffffffffffffffffffffffffffffffffffffffffffffffff1916827bffffffffffffffffffffffffffffffffffffffffffffffffffffffff1916149050919050565b60008073ffffffffffffffffffffffffffffffffffffffff166002600084815260200190815260200160002060009054906101000a900473ffffffffffffffffffffffffffffffffffffffff1673ffffffffffffffffffffffffffffffffffffffff1614159050919050565b600033905090565b816004600083815260200190815260200160002060006101000a81548173ffffffffffffffffffffffffffffffffffffffff021916908373ffffffffffffffffffffffffffffffffffffffff160217905550808273ffffffffffffffffffffffffffffffffffffffff1661252583610d0c565b73ffffffffffffffffffffffffffffffffffffffff167f8c5be1e5ebec7d5bd14f71427d1e84f3dd0314c0f7b2291e5b200ac8c7c3b92560405160405180910390a45050565b60006125768261243e565b6125b5576040517f08c379a00000000000000000000000000000000000000000000000000000000081526004016125ac9061428c565b60405180910390fd5b60006125c083610d0c565b90508073ffffffffffffffffffffffffffffffffffffffff168473ffffffffffffffffffffffffffffffffffffffff16148061262f57508373ffffffffffffffffffffffffffffffffffffffff166126178461059f565b73ffffffffffffffffffffffffffffffffffffffff16145b80612640575061263f81856121ef565b5b91505092915050565b8273ffffffffffffffffffffffffffffffffffffffff1661266982610d0c565b73ffffffffffffffffffffffffffffffffffffffff16146126bf576040517f08c379a00000000000000000000000000000000000000000000000000000000081526004016126b69061420c565b60405180910390fd5b600073ffffffffffffffffffffffffffffffffffffffff168273ffffffffffffffffffffffffffffffffffffffff16141561272f576040517f08c379a00000000000000000000000000000000000000000000000000000000081526004016127269061424c565b60405180910390fd5b61273a838383613019565b6127456000826124b2565b6001600360008573ffffffffffffffffffffffffffffffffffffffff1673ffffffffffffffffffffffffffffffffffffffff1681526020019081526020016000206000828254612795919061463e565b925050819055506001600360008473ffffffffffffffffffffffffffffffffffffffff1673ffffffffffffffffffffffffffffffffffffffff16815260200190815260200160002060008282546127ec919061455d565b92505081905550816002600083815260200190815260200160002060006101000a81548173ffffffffffffffffffffffffffffffffffffffff021916908373ffffffffffffffffffffffffffffffffffffffff160217905550808273ffffffffffffffffffffffffffffffffffffffff168473ffffffffffffffffffffffffffffffffffffffff167fddf252ad1be2c89b69c2b068fc378daa952ba7f163c4a11628f55a4df523b3ef60405160405180910390a46128ab83838361301e565b505050565b600081600001549050919050565b6128d8828260405180602001604052806000815250613023565b5050565b6129768383836040516024016128f49392919061418e565b6040516020818303038152906040527f969cdd03000000000000000000000000000000000000000000000000000000007bffffffffffffffffffffffffffffffffffffffffffffffffffffffff19166020820180517bffffffffffffffffffffffffffffffffffffffffffffffffffffffff8381831617835250505050612ff0565b505050565b8173ffffffffffffffffffffffffffffffffffffffff168373ffffffffffffffffffffffffffffffffffffffff1614156129ea576040517f08c379a00000000000000000000000000000000000000000000000000000000081526004016129e19061426c565b60405180910390fd5b80600560008573ffffffffffffffffffffffffffffffffffffffff1673ffffffffffffffffffffffffffffffffffffffff16815260200190815260200160002060008473ffffffffffffffffffffffffffffffffffffffff1673ffffffffffffffffffffffffffffffffffffffff16815260200190815260200160002060006101000a81548160ff0219169083151502179055508173ffffffffffffffffffffffffffffffffffffffff168373ffffffffffffffffffffffffffffffffffffffff167f17307eab39ab6107e8899845ad3d59bd9653f200f220920489ca2b5937696c3183604051612adb9190613ff7565b60405180910390a3505050565b612af3848484612649565b612aff8484848461307e565b612b3e576040517f08c379a0000000000000000000000000000000000000000000000000000000008152600401612b35906141ec565b60405180910390fd5b50505050565b60606000821415612b8c576040518060400160405280600181526020017f30000000000000000000000000000000000000000000000000000000000000008152509050612cec565b600082905060005b60008214612bbe578080612ba79061478b565b915050600a82612bb791906145b3565b9150612b94565b60008167ffffffffffffffff811115612c00577f4e487b7100000000000000000000000000000000000000000000000000000000600052604160045260246000fd5b6040519080825280601f01601f191660200182016040528015612c325781602001600182028036833780820191505090505b5090505b60008514612ce557600182612c4b919061463e565b9150600a85612c5a91906147d4565b6030612c66919061455d565b60f81b818381518110612ca2577f4e487b7100000000000000000000000000000000000000000000000000000000600052603260045260246000fd5b60200101907effffffffffffffffffffffffffffffffffffffffffffffffffffffffffffff1916908160001a905350600a85612cde91906145b3565b9450612c36565b8093505050505b919050565b60606000825190506000811415612d1a5760405180602001604052806000815250915050612eaa565b60006003600283612d2b919061455d565b612d3591906145b3565b6004612d4191906145e4565b90506000602082612d52919061455d565b67ffffffffffffffff811115612d91577f4e487b7100000000000000000000000000000000000000000000000000000000600052604160045260246000fd5b6040519080825280601f01601f191660200182016040528015612dc35781602001600182028036833780820191505090505b5090506000604051806060016040528060408152602001614fbf604091399050600181016020830160005b86811015612e675760038101905062ffffff818a015116603f8160121c168401518060081b905060ff603f83600c1c1686015116810190508060081b905060ff603f8360061c1686015116810190508060081b905060ff603f831686015116810190508060e01b90508084526004840193505050612dee565b506003860660018114612e815760028114612e9157612e9c565b613d3d60f01b6002830352612e9c565b603d60f81b60018303525b508484525050819450505050505b919050565b612f49838383604051602401612ec793929190614034565b6040516020818303038152906040527f2ced7cef000000000000000000000000000000000000000000000000000000007bffffffffffffffffffffffffffffffffffffffffffffffffffffffff19166020820180517bffffffffffffffffffffffffffffffffffffffffffffffffffffffff8381831617835250505050612ff0565b505050565b612fea84848484604051602401612f6894939291906140da565b6040516020818303038152906040527fd5cf17d0000000000000000000000000000000000000000000000000000000007bffffffffffffffffffffffffffffffffffffffffffffffffffffffff19166020820180517bffffffffffffffffffffffffffffffffffffffffffffffffffffffff8381831617835250505050612ff0565b50505050565b60008151905060006a636f6e736f6c652e6c6f679050602083016000808483855afa5050505050565b505050565b505050565b61302d8383613215565b61303a600084848461307e565b613079576040517f08c379a0000000000000000000000000000000000000000000000000000000008152600401613070906141ec565b60405180910390fd5b505050565b600061309f8473ffffffffffffffffffffffffffffffffffffffff166133ef565b15613208578373ffffffffffffffffffffffffffffffffffffffff1663150b7a026130c86124aa565b8786866040518563ffffffff1660e01b81526004016130ea9493929190613f52565b602060405180830381600087803b15801561310457600080fd5b505af192505050801561313557506040513d601f19601f8201168201806040525081019061313291906137bb565b60015b6131b8573d8060008114613165576040519150601f19603f3d011682016040523d82523d6000602084013e61316a565b606091505b506000815114156131b0576040517f08c379a00000000000000000000000000000000000000000000000000000000081526004016131a7906141ec565b60405180910390fd5b805181602001fd5b63150b7a0260e01b7bffffffffffffffffffffffffffffffffffffffffffffffffffffffff1916817bffffffffffffffffffffffffffffffffffffffffffffffffffffffff19161491505061320d565b600190505b949350505050565b600073ffffffffffffffffffffffffffffffffffffffff168273ffffffffffffffffffffffffffffffffffffffff161415613285576040517f08c379a000000000000000000000000000000000000000000000000000000000815260040161327c9061430c565b60405180910390fd5b61328e8161243e565b156132ce576040517f08c379a00000000000000000000000000000000000000000000000000000000081526004016132c59061422c565b60405180910390fd5b6132da60008383613019565b6001600360008473ffffffffffffffffffffffffffffffffffffffff1673ffffffffffffffffffffffffffffffffffffffff168152602001908152602001600020600082825461332a919061455d565b92505081905550816002600083815260200190815260200160002060006101000a81548173ffffffffffffffffffffffffffffffffffffffff021916908373ffffffffffffffffffffffffffffffffffffffff160217905550808273ffffffffffffffffffffffffffffffffffffffff16600073ffffffffffffffffffffffffffffffffffffffff167fddf252ad1be2c89b69c2b068fc378daa952ba7f163c4a11628f55a4df523b3ef60405160405180910390a46133eb6000838361301e565b5050565b6000808273ffffffffffffffffffffffffffffffffffffffff163b119050919050565b82805461341e90614728565b90600052602060002090601f0160209004810192826134405760008555613487565b82601f1061345957805160ff1916838001178555613487565b82800160010185558215613487579182015b8281111561348657825182559160200191906001019061346b565b5b50905061349491906134fd565b5090565b6040518060a0016040528060608152602001606081526020016000815260200160008152602001600081525090565b6040518060c001604052806000815260200160608152602001606081526020016000815260200160008152602001600081525090565b5b808211156135165760008160009055506001016134fe565b5090565b600061352d6135288461449f565b61447a565b90508281526020810184848401111561354557600080fd5b6135508482856146e6565b509392505050565b60008135905061356781614f2d565b92915050565b60008135905061357c81614f44565b92915050565b60008135905061359181614f5b565b92915050565b6000815190506135a681614f5b565b92915050565b600082601f8301126135bd57600080fd5b81356135cd84826020860161351a565b91505092915050565b6000813590506135e581614f72565b92915050565b6000602082840312156135fd57600080fd5b600061360b84828501613558565b91505092915050565b6000806040838503121561362757600080fd5b600061363585828601613558565b925050602061364685828601613558565b9150509250929050565b60008060006060848603121561366557600080fd5b600061367386828701613558565b935050602061368486828701613558565b9250506040613695868287016135d6565b9150509250925092565b600080600080608085870312156136b557600080fd5b60006136c387828801613558565b94505060206136d487828801613558565b93505060406136e5878288016135d6565b925050606085013567ffffffffffffffff81111561370257600080fd5b61370e878288016135ac565b91505092959194509250565b6000806040838503121561372d57600080fd5b600061373b85828601613558565b925050602061374c8582860161356d565b9150509250929050565b6000806040838503121561376957600080fd5b600061377785828601613558565b9250506020613788858286016135d6565b9150509250929050565b6000602082840312156137a457600080fd5b60006137b284828501613582565b91505092915050565b6000602082840312156137cd57600080fd5b60006137db84828501613597565b91505092915050565b6000602082840312156137f657600080fd5b6000613804848285016135d6565b91505092915050565b60006138198383613d32565b905092915050565b61382a81614672565b82525050565b600061383b826144e0565b613845818561450e565b935083602082028501613857856144d0565b8060005b858110156138935784840389528151613874858261380d565b945061387f83614501565b925060208a0199505060018101905061385b565b50829750879550505050505092915050565b6138ae81614684565b82525050565b60006138bf826144eb565b6138c9818561451f565b93506138d98185602086016146f5565b6138e2816148c1565b840191505092915050565b60006138f8826144f6565b6139028185614530565b93506139128185602086016146f5565b61391b816148c1565b840191505092915050565b6000613931826144f6565b61393b8185614541565b935061394b8185602086016146f5565b613954816148c1565b840191505092915050565b600061396a826144f6565b6139748185614552565b93506139848185602086016146f5565b80840191505092915050565b600061399d603f83614541565b91506139a8826148d2565b604082019050919050565b60006139c0603283614541565b91506139cb82614921565b604082019050919050565b60006139e3602583614541565b91506139ee82614970565b604082019050919050565b6000613a06601c83614541565b9150613a11826149bf565b602082019050919050565b6000613a29600e83614552565b9150613a34826149e8565b600e82019050919050565b6000613a4c602483614541565b9150613a5782614a11565b604082019050919050565b6000613a6f601983614541565b9150613a7a82614a60565b602082019050919050565b6000613a92602c83614541565b9150613a9d82614a89565b604082019050919050565b6000613ab5603883614541565b9150613ac082614ad8565b604082019050919050565b6000613ad8602a83614541565b9150613ae382614b27565b604082019050919050565b6000613afb602983614541565b9150613b0682614b76565b604082019050919050565b6000613b1e600c83614552565b9150613b2982614bc5565b600c82019050919050565b6000613b41600483614552565b9150613b4c82614bee565b600482019050919050565b6000613b64602083614541565b9150613b6f82614c17565b602082019050919050565b6000613b87602c83614541565b9150613b9282614c40565b604082019050919050565b6000613baa600a83614552565b9150613bb582614c8f565b600a82019050919050565b6000613bcd602183614541565b9150613bd882614cb8565b604082019050919050565b6000613bf0606683614552565b9150613bfb82614d07565b606682019050919050565b6000613c13601d83614552565b9150613c1e82614da2565b601d82019050919050565b6000613c36603183614541565b9150613c4182614dcb565b604082019050919050565b6000613c59603d83614552565b9150613c6482614e1a565b603d82019050919050565b6000613c7c602d83614552565b9150613c8782614e69565b602d82019050919050565b6000613c9f604183614541565b9150613caa82614eb8565b606082019050919050565b600060a0830160008301518482036000860152613cd282826138ed565b91505060208301518482036020860152613cec82826138ed565b9150506040830151613d016040860182613e52565b506060830151613d146060860182613e52565b506080830151613d276080860182613e52565b508091505092915050565b600060c083016000830151613d4a6000860182613e52565b5060208301518482036020860152613d6282826138ed565b91505060408301518482036040860152613d7c82826138ed565b9150506060830151613d916060860182613e52565b506080830151613da46080860182613e52565b5060a0830151613db760a0860182613e52565b508091505092915050565b600060c083016000830151613dda6000860182613e52565b5060208301518482036020860152613df282826138ed565b91505060408301518482036040860152613e0c82826138ed565b9150506060830151613e216060860182613e52565b506080830151613e346080860182613e52565b5060a0830151613e4760a0860182613e52565b508091505092915050565b613e5b816146dc565b82525050565b613e6a816146dc565b82525050565b6000613e7b82613b9d565b9150613e87828961395f565b9150613e9282613b11565b9150613e9e828861395f565b9150613ea982613be3565b9150613eb5828761395f565b9150613ec082613c4c565b9150613ecc828661395f565b9150613ed782613a1c565b9150613ee3828561395f565b9150613eee82613c6f565b9150613efa828461395f565b9150613f0582613b34565b9150819050979650505050505050565b6000613f2082613c06565b9150613f2c828461395f565b915081905092915050565b6000602082019050613f4c6000830184613821565b92915050565b6000608082019050613f676000830187613821565b613f746020830186613821565b613f816040830185613e61565b8181036060830152613f9381846138b4565b905095945050505050565b6000606082019050613fb36000830186613821565b613fc06020830185613e61565b613fcd6040830184613e61565b949350505050565b60006020820190508181036000830152613fef8184613830565b905092915050565b600060208201905061400c60008301846138a5565b92915050565b6000602082019050818103600083015261402c8184613926565b905092915050565b6000606082019050818103600083015261404e8186613926565b905081810360208301526140628185613926565b905081810360408301526140768184613926565b9050949350505050565b6000608082019050818103600083015261409a8187613926565b905081810360208301526140ae8186613926565b90506140bd6040830185613e61565b81810360608301526140cf8184613926565b905095945050505050565b600060808201905081810360008301526140f48187613926565b905081810360208301526141088186613926565b90506141176040830185613e61565b6141246060830184613e61565b95945050505050565b600060a08201905081810360008301526141478188613926565b9050818103602083015261415b8187613926565b905061416a6040830186613e61565b6141776060830185613e61565b6141846080830184613e61565b9695505050505050565b600060608201905081810360008301526141a88186613926565b90506141b76020830185613e61565b6141c46040830184613e61565b949350505050565b600060208201905081810360008301526141e581613990565b9050919050565b60006020820190508181036000830152614205816139b3565b9050919050565b60006020820190508181036000830152614225816139d6565b9050919050565b60006020820190508181036000830152614245816139f9565b9050919050565b6000602082019050818103600083015261426581613a3f565b9050919050565b6000602082019050818103600083015261428581613a62565b9050919050565b600060208201905081810360008301526142a581613a85565b9050919050565b600060208201905081810360008301526142c581613aa8565b9050919050565b600060208201905081810360008301526142e581613acb565b9050919050565b6000602082019050818103600083015261430581613aee565b9050919050565b6000602082019050818103600083015261432581613b57565b9050919050565b6000602082019050818103600083015261434581613b7a565b9050919050565b6000602082019050818103600083015261436581613bc0565b9050919050565b6000602082019050818103600083015261438581613c29565b9050919050565b600060208201905081810360008301526143a581613c92565b9050919050565b600060208201905081810360008301526143c68184613cb5565b905092915050565b600060208201905081810360008301526143e88184613dc2565b905092915050565b60006020820190506144056000830184613e61565b92915050565b600060c0820190506144206000830189613e61565b81810360208301526144328188613926565b905081810360408301526144468187613926565b90506144556060830186613e61565b6144626080830185613e61565b61446f60a0830184613e61565b979650505050505050565b6000614484614495565b9050614490828261475a565b919050565b6000604051905090565b600067ffffffffffffffff8211156144ba576144b9614892565b5b6144c3826148c1565b9050602081019050919050565b6000819050602082019050919050565b600081519050919050565b600081519050919050565b600081519050919050565b6000602082019050919050565b600082825260208201905092915050565b600082825260208201905092915050565b600082825260208201905092915050565b600082825260208201905092915050565b600081905092915050565b6000614568826146dc565b9150614573836146dc565b9250827fffffffffffffffffffffffffffffffffffffffffffffffffffffffffffffffff038211156145a8576145a7614805565b5b828201905092915050565b60006145be826146dc565b91506145c9836146dc565b9250826145d9576145d8614834565b5b828204905092915050565b60006145ef826146dc565b91506145fa836146dc565b9250817fffffffffffffffffffffffffffffffffffffffffffffffffffffffffffffffff048311821515161561463357614632614805565b5b828202905092915050565b6000614649826146dc565b9150614654836146dc565b92508282101561466757614666614805565b5b828203905092915050565b600061467d826146bc565b9050919050565b60008115159050919050565b60007fffffffff0000000000000000000000000000000000000000000000000000000082169050919050565b600073ffffffffffffffffffffffffffffffffffffffff82169050919050565b6000819050919050565b82818337600083830152505050565b60005b838110156147135780820151818401526020810190506146f8565b83811115614722576000848401525b50505050565b6000600282049050600182168061474057607f821691505b6020821081141561475457614753614863565b5b50919050565b614763826148c1565b810181811067ffffffffffffffff8211171561478257614781614892565b5b80604052505050565b6000614796826146dc565b91507fffffffffffffffffffffffffffffffffffffffffffffffffffffffffffffffff8214156147c9576147c8614805565b5b600182019050919050565b60006147df826146dc565b91506147ea836146dc565b9250826147fa576147f9614834565b5b828206905092915050565b7f4e487b7100000000000000000000000000000000000000000000000000000000600052601160045260246000fd5b7f4e487b7100000000000000000000000000000000000000000000000000000000600052601260045260246000fd5b7f4e487b7100000000000000000000000000000000000000000000000000000000600052602260045260246000fd5b7f4e487b7100000000000000000000000000000000000000000000000000000000600052604160045260246000fd5b6000601f19601f8301169050919050565b7f5b2d5d204572726f723a2054686520636861726163746572206973206465616460008201527f2120204d757374206861766520485020746f2061747461636b20626f73732100602082015250565b7f4552433732313a207472616e7366657220746f206e6f6e20455243373231526560008201527f63656976657220696d706c656d656e7465720000000000000000000000000000602082015250565b7f4552433732313a207472616e736665722066726f6d20696e636f72726563742060008201527f6f776e6572000000000000000000000000000000000000000000000000000000602082015250565b7f4552433732313a20746f6b656e20616c7265616479206d696e74656400000000600082015250565b7f2c20226d61785f76616c7565223a000000000000000000000000000000000000600082015250565b7f4552433732313a207472616e7366657220746f20746865207a65726f2061646460008201527f7265737300000000000000000000000000000000000000000000000000000000602082015250565b7f4552433732313a20617070726f766520746f2063616c6c657200000000000000600082015250565b7f4552433732313a206f70657261746f7220717565727920666f72206e6f6e657860008201527f697374656e7420746f6b656e0000000000000000000000000000000000000000602082015250565b7f4552433732313a20617070726f76652063616c6c6572206973206e6f74206f7760008201527f6e6572206e6f7220617070726f76656420666f7220616c6c0000000000000000602082015250565b7f4552433732313a2062616c616e636520717565727920666f7220746865207a6560008201527f726f206164647265737300000000000000000000000000000000000000000000602082015250565b7f4552433732313a206f776e657220717565727920666f72206e6f6e657869737460008201527f656e7420746f6b656e0000000000000000000000000000000000000000000000602082015250565b7f20202d2d204e465420233a200000000000000000000000000000000000000000600082015250565b7f7d205d7d00000000000000000000000000000000000000000000000000000000600082015250565b7f4552433732313a206d696e7420746f20746865207a65726f2061646472657373600082015250565b7f4552433732313a20617070726f76656420717565727920666f72206e6f6e657860008201527f697374656e7420746f6b656e0000000000000000000000000000000000000000602082015250565b7f7b226e616d65223a202200000000000000000000000000000000000000000000600082015250565b7f4552433732313a20617070726f76616c20746f2063757272656e74206f776e6560008201527f7200000000000000000000000000000000000000000000000000000000000000602082015250565b7f222c20226465736372697074696f6e223a2022546869732069732061204e465460008201527f207468617420616c6c6f77732070656f706c6520746f20706c617920696e207460208201527f68652067616d6520457870616e736520576172736869707321222c2022696d6160408201527f6765223a20220000000000000000000000000000000000000000000000000000606082015250565b7f646174613a6170706c69636174696f6e2f6a736f6e3b6261736536342c000000600082015250565b7f4552433732313a207472616e736665722063616c6c6572206973206e6f74206f60008201527f776e6572206e6f7220617070726f766564000000000000000000000000000000602082015250565b7f222c202261747472696275746573223a205b207b202274726169745f7479706560008201527f223a20224865616c746820506f696e7473222c202276616c7565223a20000000602082015250565b7f7d2c207b202274726169745f74797065223a202241747461636b2044616d616760008201527f65222c202276616c7565223a2000000000000000000000000000000000000000602082015250565b7f5b2d5d204572726f723a2054686520616c69656e20626f73732069732064656160008201527f6421204d757374206861766520485020746f2061747461636b20706c6179657260208201527f2100000000000000000000000000000000000000000000000000000000000000604082015250565b614f3681614672565b8114614f4157600080fd5b50565b614f4d81614684565b8114614f5857600080fd5b50565b614f6481614690565b8114614f6f57600080fd5b50565b614f7b816146dc565b8114614f8657600080fd5b5056fe5b2a5d204d696e746564204e465420772f20746f6b656e2049443a20257320616e6420636861726163746572496e6465783a2025734142434445464748494a4b4c4d4e4f505152535455565758595a6162636465666768696a6b6c6d6e6f707172737475767778797a303132333435363738392b2f5b2b5d202573207368697020686173206265656e2064657374726f79656421202025732077696e7321a2646970667358221220d94b25cf9b0b8f7b9b88035f3b7454628576749cd6d71d29556f33a63392c4c164736f6c634300080400335b2b5d2043726561746564206120416c69656e20426f737320257320772f2048503a2025732c20496d673a2025735b2b5d20446f6e6520696e697469616c697a696e6720257320776974682048502025730a205b2b5d496d616765205552493a202573",
    "linkReferences": {},
    "deployedLinkReferences": {}
}